:020000040000FA
:1000000060020010590200005D0200005F02000063
:1000100061020000630200006502000000000000B1
:100020000000000000000000000000006702000067
:1000300069020000000000006B0200006D02000079
:100040006F0200006F0200006F0200006F020000EC
:100050006F0200006F0200006F0200006F020000DC
:100060006F0200006F0200006F0200006F020000CC
:100070006F0200006F0200006F0200006F020000BC
:100080006F0200006F020000350F00006F020000D9
:100090006F0200006F0200006F0200006F0200009C
:1000A0006F0200006F0200006F0200006F0200008C
:1000B0006F0200006F0200006F0200006F0200007C
:1000C0000448854601F068FC004800471D0A00000E
:1000D000C046C0466002001070B54C4D0020696AF1
:1000E000C905090F0B0001F0D8FC1026090B0D0FF4
:1000F00011131517191B1D1F2123252644481AE02B
:10010000444818E0444816E0444814E0444812E0EB
:10011000444810E044480EE044480CE044480AE0FB
:10012000444808E0444806E0444804E0444802E00B
:10013000444800E04448696AC906890E891C00F0F9
:1001400099F8324A4032116B414C8E073F49B60F45
:100150001ED00023012E04D0022E0DD0032E21D15B
:100160000CE010688007800F12D0012810D0022800
:1001700017D0032816D114E0206013E01068800720
:10018000800F01D00128F2D1A868C005800F01D0EE
:10019000216007E0A8682D49C006C00E401C4843F6
:1001A000EAE72360916B206800F064F8206070BD7E
:1001B00078B5284B986B202188439863134C002214
:1001C0002262009200BF0098401C0090C828F9D31A
:1001D0000E48012140300160416042604160456845
:1001E000ED07FCD02325A5609D6B8026B5439D635C
:1001F000E368DB07FCD0032303634163426341638D
:10020000426BD207FCD0816378BD000000800440BF
:1002100020A1070000350C00E0C81000C05C1500EC
:10022000006A180040771B0080841E00C0912100E6
:10023000009F240040AC2700E032290020402C0021
:10024000604D2F0000D4300040E13300001BB700A8
:10025000000000100082044005480047FEE7FEE76A
:10026000FEE7FEE7FEE7FEE7FEE7FEE7FEE7FEE766
:10027000C100000030B50B460146002020220124B9
:1002800009E00D46D5409D4205D31D469540491BCA
:100290002546954040191546521E002DF1DC30BD13
:1002A000420005D04200120E52428A4201DB002079
:1002B0007047C9050818704770B54B005B080343C9
:1002C0000BD04B005C0D002633466542B341D4177A
:1002D000AD1AA34102DB0020014670BD12053018A3
:1002E000514170BD10B500229623114601F0F4F87B
:1002F00010BD70470000000000000000FFFFFFFF7E
:10030000FE49086048698006FCD5704700B5024682
:10031000C0B2FFF7F5FF104600BD10B5F8480268FF
:10032000012109040A430260F64AD36A9B099B0132
:10033000D362F54A13680415A3431360F34B0022FC
:10034000DA615A60026883159A43026002688A4340
:10035000026010BD0821C8068161016810221143A6
:1003600001600168C906FCD470470821C806816194
:1003700001680907FCD58068C0B270470121890770
:1003800088600820886108680007FCD57047012054
:100390008007016820221143016001680907FCD52C
:1003A00028218161704710B5FFF7F1FF9120FFF719
:1003B000E5FF042213071A60FFF7D7FF04469A618E
:1003C000FFF7D3FF2102401883B2FFF7C3FF58099C
:1003D000CF4C410509D58005800D00F0F7FF22467E
:1003E000FFF76AFF01F01AF810BDFFF77BFF214607
:1003F000FFF756FF10BD70B50546C64C0220606081
:10040000C5487D21C9000068FFF734FF401EE06049
:10041000A5610120606060606068C007FCD170BDAC
:10042000B7480168402211430160B7490A680315C3
:100430001A430A6001689A0191430160704700B550
:100440000346FFF7A4FF7820FFF798FF4020FFF74F
:1004500095FF1846FFF792FFFFF77CFF00BD00B540
:100460000346FFF794FF7820FFF788FF0020FFF78F
:1004700085FF1846FFF782FFFFF76CFF00BD10B540
:100480000C46B0210843FFF7EAFF20091030FFF7C0
:10049000E6FF2007000FFFF7E2FF10BD30B5002494
:1004A00000212046FFF7EBFF00250020FFF7C7FFE4
:1004B0006D1CEDB2802DF8D3641CE4B2082CEFD390
:1004C00030BD30B58E4980394A6802231A434A60EC
:1004D0008B490A6820231A430A600A68DB021A4320
:1004E0000A60884A403A146BA409A4011463156B8E
:1004F000012425431563556BAD09AD015563556B5B
:1005000025435563CA0501280DD0FF2081301061B5
:1005100050616C2090610868984308601068402121
:100520000843106030BD302050611061F1E700B524
:1005300000217D22D2000020401C9042FCD3491CA7
:100540009142F8D30120FFF7BCFFAE20FFF787FFF1
:10055000D520FFF784FF8020FFF781FFA820FFF759
:100560007EFF3F20FFF77BFFD320FFF778FF0020BF
:10057000FFF775FF4020FFF772FFA120FFF76FFF25
:10058000C820FFF76CFFDA20FFF769FF1220FFF7A2
:1005900066FF8120FFF763FFCF20FFF760FFD920C0
:1005A000FFF75DFFF120FFF75AFFDB20FFF757FF52
:1005B0003020FFF754FFA420FFF751FFA620FFF7DC
:1005C0004EFF8D20FFF74BFF1420FFF748FFAF20B1
:1005D000FFF745FFFFF762FF00BD5048C16B0122E6
:1005E0001143C16370474E49CA68D206FCD4886083
:1005F000C8684007FCD58868C0B2704730B50C4663
:100600000546002305E0FF20FFF7EDFFE8545B1CE3
:10061000DBB2A342F7DB30BD30B50C460546002304
:1006200004E0E85CFFF7DFFF5B1CDBB2A342F8D31A
:1006300030BD3A48C16B49084900C163704700B5F5
:10064000FFF7F7FF0520FFF7CEFFFF20FFF7CBFFF7
:100650000346FFF7C2FF184600BD00B5FFF7EFFFE6
:10066000C007FBD100BD30B505462E4A03201070EF
:100670002220507090700C46D070FFF7EEFFFFF70D
:10068000D8FF04212748FFF7C7FF2648214610302E
:10069000FFF7B4FFFFF7A1FF22480022103002E06D
:1006A000815CA954521CA242FADB30BD10B50C4645
:1006B0000346FFF76CFED020FFF760FE1846FFF7F9
:1006C0005DFE0420020790612046FFF757FEFFF70A
:1006D00041FE10BD30B501213F20FFF7E7FFFFF7D6
:1006E00056FED120FFF74AFE04231C072360FFF7C4
:1006F0003CFE0D4A1070FFF738FE17E00080004006
:1007000080800440404004400080015000000140CF
:10071000FDFFFFFF00C0004000000010C03F02507E
:10072000008005403C000010130000105070FFF7DF
:100730001CFE9070FFF719FED070FFF716FE1071C7
:10074000FFF713FE5071A361FFF70FFE90719378CE
:10075000FC491C091B0730341B0F0C7030334B70E5
:100760003A238B705478250924073035240FCD7037
:1007700030340C714B7113781C091B0730341B0F7C
:100780008C713033CB7132230A390B7030234B70AC
:10079000030900073033000F8B703030C8702D20F4
:1007A000087153791C091B0730341B0F4C7130330F
:1007B0008B71C8711079030900073033000F0B7279
:1007C00030304872D078E0490007000F30300870B0
:1007D000FFF7C0FD30BD10B50346FFF7D8FDD020B0
:1007E000FFF7CCFD0422140722600020FFF7C6FDAE
:1007F0001878FFF7C3FD5878FFF7C0FD9878FFF72A
:10080000BDFDD878FFF7BAFD1879FFF7B7FD587925
:10081000FFF7B4FDA2619879FFF7B0FDFFF79AFDED
:1008200010BDC9480830D6E7C848016840221143C6
:100830000160C7480268012149020A430260C548B5
:1008400002684B101A43026002680A4302600168A2
:100850009A00114301607047BC480168421511437A
:100860000160BD481F2101600021C1600321416179
:10087000BA490968491E8161012141608804B8496B
:1008800008607047B1480168802211430160B54893
:100890000121016004214161704710B5AB48016836
:1008A000B14A11430160B149CA6A02200243CA62D7
:1008B000AF4C60600021E160AD49403148634002C7
:1008C0006061A6487D21C9000068FFF7D3FC606223
:1008D000606AE0610120606010BD70B59B4B1968D3
:1008E0000124240421431960A04A4032516AC908F6
:1008F000C9005162516A012529435162916AC908B0
:10090000C9009162916A294391621968A1431960F3
:1009100019682211114319609D61964C8321E16091
:100920008E4909680A0901461046FFF7A3FC010A2F
:100930006160C0B220600320E0600720A0606069B1
:1009400060694006800F0328FAD100E020686069E2
:10095000C007FBD1606828436060012080494005E2
:10096000086070BD794801687F4AC03A1143016050
:100970007E48C169C908C900C161C26902210A4330
:10098000C2617A484030C268D208D200C260C268F0
:100990000A43C26075484038826AD208D200826237
:1009A000826A0A4382626B490A68012002430A6034
:1009B0007149CA6B0243CA637047644810B58038F6
:1009C00041680424214341606048016822041143C6
:1009D00001600223C361FFF7C5FF694867490160F1
:1009E000036141684908490041604168A143416091
:1009F00041681943416000218268491CC9B2082935
:100A0000FAD3504B00201A331A460146103A1954B3
:100A10001154401CC0B21028F9D310BDFFF7C8FB19
:100A20000120FFF74EFDFFF7C8FFE1204002FFF76E
:100A300054FFFFF732FFFFF725FFFFF70DFFFFF72A
:100A4000F3FE41480830FFF7C6FEFFF743FE3E487D
:100A500008211630FFF707FEFFF769FDFFF71EFDBF
:100A6000FFF7DEFCC820FFF7C6FCFFF79CFCFFF792
:100A700054FCFEE700B5FFF7E2FD8007800F022877
:100A8000F9D100BD00B5FFF7D4FD0620FFF7ABFD9F
:100A9000FFF7A3FD00BD70B50C460546FFF7F2FF5A
:100AA0003220FFF7A8FC274A02200A3210702220C9
:100AB00050709070D070002303E0E85CD11808718A
:100AC0005B1CA342F9DBFFF7D5FFFFF7B2FD1D4822
:100AD000241DE1B20A30FFF79FFDFFF77EFD70BDD8
:100AE00010B50446FFF7CEFF3220FFF784FCFFF776
:100AF000A0FD0120FFF777FD2046FFF774FDFFF70B
:100B00006CFD10BD10B50020FFF7EAFF3220FFF7A3
:100B100072FCFFF7B7FF3220FFF76DFCFFF789FD8E
:100B20002020FFF760FD2220FFF75DFD2220FFF768
:100B30005AFD2220FFF757FDFFF74FFD6420FFF716
:100B40005AFC10BD320000100400001080800440E8
:100B50000080015000800250004001400000001061
:100B600000E100E000C000400001010040400440FE
:100B70000000014000800040C03F02500707000015
:100B80000080054010B5FE48C16B01225202514061
:100B9000C1633220FFF72FFCD3E710B5F848C16BD3
:100BA000012292025140C1633220FFF724FCC8E7C2
:100BB00010B5F348C16BFF2201325140C1633220AE
:100BC000FFF719FCBDE710B5EE48026801210904E2
:100BD0000A430260EC4AD36A02242343D362EB4CFB
:100BE00001226260026883151A43026002688A4328
:100BF0000260E7487D21C9000068FFF73BFB401E0B
:100C00006062606A322148436421FFF733FBE06190
:100C100097E7F8B50125AD02DE49D94C6E10AF104B
:100C200088420FDDFFF7CFFFE06BA843E063E06B86
:100C3000B043E063E06BB843E063D748C16BA943BE
:100C4000C163F8BD0121C905D44A411A91420AD8AD
:100C5000E06B2843E063E06B3043E063FFF75DFB4C
:100C6000FFF7A6FFF8BDCE49CE4A411891420AD8F7
:100C7000E06B3043E063E06B3843E063FFF74DFB2C
:100C8000FFF78BFFF8BDC8494018C8498842F9D81A
:100C9000E06B2843E063E06B3843E063FFF73DFB24
:100CA000FFF770FFF8BDF0B5CF004500083FA81E64
:100CB0001646F9B2C0B2FFF7E2FBBD49002430018D
:100CC00046183019FF38FF3802380078FFF7B7FBB5
:100CD000641CE4B2082CF4D36D1EF9B2E8B2FFF73D
:100CE000CEFB00243019FF38FF380238007AFFF7B6
:100CF000A6FB641CE4B2082CF4D3F0BDF0B5154695
:100D00000E460746002406E03019C1B23846FFF708
:100D1000CAFF641CE4B22A5D002AF5D1F0BD10B50B
:100D2000A4A204210120FFF7E9FFA6A201210220CD
:100D3000FFF7E4FFA54C072122780220FFF7B3FF5D
:100D4000627808210220FFF7AEFFA2780921022075
:100D5000FFF7A9FFE2780A210220FFF7A4FF22791A
:100D60000B210220FFF79FFF62790C210220FFF781
:100D70009AFFA2790D210220FFF795FFE2790E215B
:100D80000220FFF790FF227A0F210220FFF78BFF4E
:100D9000627A10210220FFF786FF8DA20121032035
:100DA000FFF7ACFF0A34227808210320FFF77BFF0E
:100DB000627809210320FFF776FFA2780A21032039
:100DC000FFF771FFE2780B210320FFF76CFF227918
:100DD0000C210320FFF767FF62790D210320FFF745
:100DE00062FFA2790E210320FFF75DFFE2790F2158
:100DF0000320FFF758FF78A201210420FFF77EFFB0
:100E0000774C082122780420FFF74DFF62780921F2
:100E10000420FFF748FFA2780A210420FFF743FFD0
:100E2000E2780B210420FFF73EFF22790C210420F9
:100E3000FFF739FF62790D210420FFF734FF69A223
:100E40000F210420FFF75AFF7BE6674A06E053694B
:100E50009B06FCD503781360401C491E0029F6D17F
:100E6000704700B5062161A0FFF7EFFF0A21574840
:100E7000FFF7EBFF02215FA0FFF7E7FF06215EA06F
:100E8000FFF7E3FF514808210A30FFF7DEFF022198
:100E900058A0FFF7DAFF062159A0FFF7D6FF504808
:100EA00001211638FFF7D1FF022152A0FFF7CDFF35
:100EB00000BD10B50446084600F09CFA02460B46F9
:100EC00051A1204600F0BEFD3BE6F0B589B00025FB
:100ED0006C46FFF768FAA9006D1C6050072DF8D327
:100EE000002600250620871B11E0A80001190791A4
:100EF00008904968205800F0ADFA07D20799089881
:100F00004A68089920586250079948606D1CAF42A2
:100F1000EBD8761C062EE4D300200125A9006158E9
:100F200000F0BCF96D1C062DF8D31C4900F00FFA37
:100F300009B0F0BD70B5364C20680125284320600B
:100F400001281BD108212648FFF78DFB31A000F0B6
:100F500069FD35A000F066FD39A000F063FD3BA0FF
:100F600000F060FDFFF7B6FBFFF7AFFF1C4E014638
:100F7000163E70601A48FFF79CFF6FE085E00000A6
:100F8000C03F0250808004404040044000000140C7
:100F9000000000100000F041C03F01500000A040E0
:100FA000FFFFDFBEFFFF7F00FFFF5FBEFFFF4F00C1
:100FB0008A2300004C69754A69616A756E20212098
:100FC00000000000444154453A2000002800001071
:100FD00054494D453A20200054656D703A20200058
:100FE0001A00001043000000008000404461746556
:100FF0003A200000200A000054696D653A20000084
:101000005765656B3A200000252E3366000000000E
:10101000004001404861696E616E20556E697665D9
:1010200072736974790A0000546561636865723A85
:101030002057616E672051696E676A690A00000077
:101040004C6975204A69616A756E0A003230323225
:10105000333030343432360A00000000FFF701FF2D
:101060003146163181A000F0DDFC85A000F0DAFCED
:10107000FFF755FE7068FFF7CCFDFFF743FD3046E4
:1010800008211630FFF707FD256070BD70B50546D5
:101090007C4C022060607D487B490068FFF7EAF8DD
:1010A000401EE060A561012060606068C007FCD15F
:1010B00070BD77484169C907FCD00068C0B270476D
:1010C00000B574484B210170002141708170C170DE
:1010D000FFF7AFFA6F4810211030FFF78FFAFFF7D4
:1010E0007CFA00BD10B50020FFF7FAFC3220FFF7B4
:1010F00082F9FFF7C7FC3220FFF77DF9FFF799FA75
:101100006020FFF770FAFFF768FA1AE500B5FFF7FD
:101110003EF9D120FFF732F9042001078861FFF77B
:1011200024F90346FFF716F9184600BD02460120D0
:1011300000E05043491EFCD27047FFB581B01D4608
:1011400017460E46002414E0291B0A20491EFFF70B
:10115000EDFF01463846FFF78DF80A21FFF78AF8C0
:101160000A463019C1B230320198FFF79CFD641C69
:10117000E4B2AC42E8D305B0F0BDFFB581B01D4686
:1011800014000E4605D42B220198FFF78CFD27464C
:1011900004E02D220198FFF786FD6742002415E048
:1011A000291B0A20491EFFF7C1FF01463846FFF7F9
:1011B00061F80A21FFF75EF80A463019401CC1B2F7
:1011C00030320198FFF76FFD641CE4B2AC42E7D304
:1011D000D1E7FFB581B01D4617460E46002419E041
:1011E000291B1020491EFFF7A1FF01463846FFF7D3
:1011F00041F80207120F0A2A04D23019C1B2303264
:10120000019803E03019C1B237320198FFF74BFD66
:10121000641CE4B2AC42E3D3ADE7FFB581B01D4638
:1012200017460E46002412E0291B0220491EFFF734
:101230007DFF01463846FFF71DF8C2073019D20F6F
:10124000C1B230320198FFF72EFD641CE4B2AC420B
:10125000EAD390E710B51048C16B01225202514009
:10126000C1633220FFF7C7F86BE4000054656D706E
:10127000657261747572653A2025730A000000007A
:10128000200A000000C0004040420F000000001093
:10129000008000403C000010C03F0150F8B50246FD
:1012A0004A40D40F42004B0052085B089A4202D2D7
:1012B0000246084611464A0023D0C30D4A00DDB25B
:1012C000120EAD1A202D35DA49020126490AF6051B
:1012D0008A19002C00D0524220214F1B1146B940E0
:1012E0002A411018C20D9A4221D0002C17D0012D8E
:1012F00008DCDA05801AD20F8019D207DBB200F0C1
:10130000EBF8F8BDDA05801A012340001B06C0186F
:1013100080185A428018CA0F1043490007E0490854
:10132000C2071143DA05801A80194008801800F0BE
:10133000CBF8F8BD61000122511A001BF7E701222A
:10134000D2075140AAE70122D2075040A6E770B564
:1013500002464A40D50F40004A00ED0740085208B7
:10136000002814D0002A12D0C40DD30D4102012050
:10137000C0055202490A520AE41A091812187D34AB
:10138000914201D3641C00E04900002C01DA0020E6
:1013900070BD0023914201D3891A034340084900DC
:1013A0000028F7D100290AD0914202D10121C907B2
:1013B00005E0914201D2012101E00121C943E0058C
:1013C000C018401900F080F870BD00000EB5C217BB
:1013D000C10F5040CA0740180021054B02930192EB
:1013E00000910A460B4600F0BDF803B000BD0000B6
:1013F00033040000C20FD207400040080BD0C10DDB
:101400000723DB01C91840020905400A1143C2083D
:10141000400711437047002001467047CB0FDB07A0
:10142000490010B5490802460A4307D00A0D0724AF
:101430000903E401090B121B002A01DC002010BD86
:10144000C900440F0C43C100E018D205801800F019
:101450003BF810BD0122D207002800DB101A00293A
:1014600000DB511A88427047F0B51FB406460020D1
:1014700082B005464024019100901BE0019922466C
:101480000F46304600F0AAFA049A059B801A99414B
:1014900010D310461946224600F090FA361A8F41B2
:1014A0000197224601200021009F00F087FA38189A
:1014B0004D4100902046641E0028DFDC019B00980F
:1014C0002946324607B0F0BD002904DA401C490025
:1014D00001D140084000704770B40024050C05D1CC
:1014E0001024000402D1002921D01124050E01D1BD
:1014F00000020834050F01D10001241D850F01D120
:101500008000A41C002801DB4000641C002908D0D6
:1015100020252E1B0D46F540A14000D00121294376
:10152000084301061B1B000ADB1D02D5002070BC0E
:101530007047DB05181880180029F8DA401C4900AC
:10154000F5D170BC40084000704710B5002B08DA98
:101550000024401C614192185B411A4301D14008AC
:10156000400010BDF0B51FB482B005460C0003D09A
:10157000084600F07BFA02E000F078FA20300246DC
:1015800000902146284600F019FA049B059A04466B
:101590000F4618431143084314D0184610431BD07C
:1015A000009840210A1A1846059900F017FA0546D6
:1015B0000E46009A0599049800F000FA084305D0F9
:1015C000012004E02046394607B0F0BD0020C117D5
:1015D00005430E432C43374300990E986305401A88
:1015E0007905E40A00220C43FD0A0A3002D50020E6
:1015F0000146E9E70105101969410C9C0D9D001990
:101600006941FFF7A2FFDFE7F0B5074608465840FB
:1016100087B0C00F049048000E46590040084908A2
:10162000BC1A884105D2384631461E4617460B463D
:1016300002465800400810434DD0300D039040053D
:101640005900400D490D0590401A0290402873DA68
:1016500018030121000B090508430190049800922A
:10166000002806D01146019A49420020904100917D
:101670000190029840210A1A0199009800F09EF901
:1016800005460C466B4607CB00F0B9F9C01971410D
:10169000039A0E0D0023D71756401A467A40164378
:1016A00044D0049A002A2DD0029A012A039A15DC0C
:1016B0001205C01A914101263605001C7141D20F56
:1016C000059ED2070093019202962A462346FFF711
:1016D00049FF07B0F0BD38463146FAE71605234A00
:1016E0000F46B218C01AB74101210905001C4F412D
:1016F00000187F41114618187941E20F10436D1907
:10170000644113E0E2076D0815436408C2071443FF
:10171000039A01261205C01A91413605001C714139
:10172000CE07400830434908C01851412A46234695
:10173000FFF70BFFCDE7FFE7049801224000C11738
:10174000121A00238B4104983146C417381AA1415C
:10175000EEE730B40124E407634030BC54E730B412
:101760000124E407614030BC4EE700000000E0FFC8
:10177000F0B51FB488B00B99099800244840099926
:10178000C00F490049080991C0070B990090490012
:1017900049080B9109990898A64608431CD00B9953
:1017A0000A98084318D0099801244000420D4800C7
:1017B000410D099824050003000B204309900B9864
:1017C0000003000B20430B9050181C4940180022C6
:1017D00001901446104605E0002001460DB0F0BD12
:1017E000032801DA034600E003239C46C11A0AAE2F
:1017F0000AE05F0008ADED5B4F00F75B7D4300271B
:10180000AA187C41491C5B1E6145F2DD410004AB16
:101810005A522104120C0A43240C401C0828DFDB16
:10182000019802900099704601910090059B049ADE
:1018300007990698FFF796FED0E700000DFCFFFF22
:10184000F0B50C465C4085B0E40FE40703944C000F
:10185000002664085900944649080246029622432D
:1018600021D062460A431ED06200570D4A000E0383
:101870002303550D012402462C492405781B1B0B1C
:10188000360B401823432643614600901C46501AED
:10189000B44103D30098401C009002E092180098D5
:1018A0005B41002803DA0020014605B0F0BD0020AE
:1018B000012109050746864611E064461D46141BB2
:1018C000B54106D36546521BB341744607430C43EA
:1018D000A646CD0740084908284392185B410546B3
:1018E0000D43EAD11046184313D0604619465040C4
:1018F0007140084306D06046101AB34106D2012257
:10190000002306E000220123DB0702E00122D2438C
:101910005310009874460105381C6141029C039DD8
:1019200000196941FFF711FEBFE70000FD03000049
:101930004A0009030123090B1B0519430A4B10B583
:10194000520D9A4202DA0020014610BD064B343394
:101950009A4203DC9A1A00F041F810BD034BD218EA
:1019600000F02CF810BD0000FF030000CDFBFFFFCE
:1019700010B5002904DB0124E40740428C412146D4
:10198000002B04DB1C460123DB075242A341994292
:1019900000D1904210BD0000064C0125064E05E026
:1019A000E36807CC2B430C3C98471034B442F7D380
:1019B000FEF78AFB7C2900009C29000010B5202A34
:1019C00004DB0146203A9140002010BD91402023C5
:1019D0009C1A0346E3401943904010BD10B5202ADD
:1019E00004DB0846203AD040002110BD0B46D3400E
:1019F000D0402024A21A91400843194610BD10B5CA
:101A0000202A06DBCB170846203A1041C1170B43AA
:101A100006E00B461341D0402024A21A914008430F
:101A2000194610BD0FB410B503A9044B044A02981F
:101A300000F008F910BC08BC04B018470D03000002
:101A4000240000100FB410B504A9074B02AA039894
:101A500000F0F8F8044602A9002000F091FC2046AE
:101A600010BC08BC04B01847812300002021020CE0
:101A700001D010211046020A01D01046083902098F
:101A800001D01046091F820801D01046891E420865
:101A900001D0881E7047081A704730B47446641E1F
:101AA0002578641CAB4200D21D46635D5B00E318E1
:101AB00030BC184702E008C8121F08C1002AFAD13A
:101AC0007047002001E001C1121F002AFBD17047BE
:101AD000F0B51FB486B00998089A030D002102439F
:101AE00014D05148514A1818504305141198012830
:101AF00010981AD0281A401C00264D4F4D490096C8
:101B000001910490002812DA444211E01198012456
:101B100049A3012801D11098C1430698119A846005
:101B20000360C26041600BB0F0BD4042E4E7044690
:101B3000210500203F4A001C51410391029012E010
:101B4000E00707D032463B4601990098FFF710FEA8
:101B50000191009032463B4610461946FFF708FEB9
:101B600006460F466410002CEAD10498039B002817
:101B7000029A0999089806DAFFF7FAFD019B009A84
:101B8000FFF7F6FD05E0FFF75BFE019B009AFFF70C
:101B900057FE04460E460022284BFFF7E9FE03D805
:101BA0000020C043014607E00022254B2046314675
:101BB000FFF72AFDFFF7BCFE102409E0002C0ADB2A
:101BC0000A220023FFF750FC079B30321A55641E8F
:101BD00002460A43F2D11122641C079B121B1C19F6
:101BE000119B012B03D0012308430ED10AE00843C7
:101BF00004D0112010900020119077E71098151A4A
:101C00006D1E0BE01098824202DD00236D1C03E084
:101C1000824201DA00236D1E002BEED00698119946
:101C20008260C16030C07EE701FCFFFF104D000004
:101C3000000014400000F03F300000000000F043BE
:101C40000000E03FFFB597B0064600251BE22528BF
:101C500076D100242746F749049400E00443761C1B
:101C600032780120203A90400842F7D130782A2873
:101C70000ED00222307801463039092916D804994D
:101C80000A235943303940181443761C0490F1E775
:101C9000189802C804911890002904DA0120400322
:101CA00004434842049002200443761C30782E28D6
:101CB00014D1042004437078761C2A2809D118987E
:101CC000761C80C8189009E00A214F43303FC7199D
:101CD000761C3078014630390929F5D930786C28DE
:101CE00010D006DC4C281AD068280ED06A2817D1EC
:101CF00004E0742813D07A2812D110E001204005A6
:101D000004430CE00121090501E0032109050C430E
:101D10007178814203D1012000052418761C761CBD
:101D2000307866280BD013DC58287DD009DC0028D9
:101D30007BD04528F6D04628F4D047281AD1A9E10F
:101D400018E0632835D0642870D0652812D1A1E14D
:101D500070286CD008DC6728F1D069287DD06E2807
:101D60000DD06F2806D1BCE073282ED0752873D013
:101D7000782859D01A9A199990476D1C82E160020F
:101D8000400F022809D003280DD0042818980168B4
:101D90000DD00D60001D189074E11898EA170168C5
:101DA0000D604A60F6E7189801680D80F2E70D7043
:101DB000F0E718986A4601781172001D189000200B
:101DC000507202A80090012005E0189802C81890EF
:101DD00000200091C04361070ED5002101E0019968
:101DE000491C0191B94213DA8142F8DB019A00994A
:101DF000895C0029F3D10BE0002101E00199491C25
:101E000001918142FADB019A0099895C0029F5D1A0
:101E1000019904981A9B471A21463846199A00F0EE
:101E200099FA4019019903E051E030E115E050E0E2
:101E3000451807E0009800990078491C00911A9A0B
:101E4000199990470198401E0190401CF2D12146FB
:101E500038461A9B199A12E137E00A2000210090B7
:101E600001916002410F022907D0189A01CA189205
:101E7000C2179446032908D00AE01898C01DC1086B
:101E8000C90005C91891944607E000B2C2179446EC
:101E9000042902D140B2C1178C4600226146944504
:101EA00006DA0A460021404291418C462D2102E08B
:101EB000210504D52B216A461173012103E0E107B6
:101EC00001D02021F7E7029156E00A200AE0102015
:101ED00008E010200090002104200443019108270D
:101EE00003E008200021019100906002410F0229C7
:101EF00007D0189A01CA189200229446032908D0E4
:101F000008E01898C01DC108C90005C91891944679
:101F100003E080B2042900D1C0B200210291210760
:101F20002AD531780D91702906D0009A1021019B95
:101F30004A401A4305D00EE040216A461173012140
:101F400008E06146014306D030216A4611730D99BD
:101F5000517302210291009A0821019B4A401A43C1
:101F60000AD16146014301D1610705D530216A4696
:101F7000117301217F1E02913178582904D02EA1BE
:101F80000E910DA90D910DE030A1F9E76146019B7D
:101F9000009AFFF769FA0E9B8C469B5C0D9A521EC5
:101FA0000D92137061460143F0D10D9805A9081AEE
:101FB00020300190600703D501200004844300E035
:101FC00001270198874201DD381A00E000200199BD
:101FD00000904118029809180498401A0490E003F0
:101FE00006D421461A9B199A049800F0B3F94519B2
:101FF000002706E003A81A9AC05D199990476D1C46
:102000007F1C02988742F5DBE0030CD521461A9B22
:10201000199A049800F09EF9451904E01A9A3020A4
:10202000199990476D1C0099481E00900029F5DC15
:102030001FE00000092801003031323334353637D3
:102040003839616263646566000000003031323304
:1020500034353637383941424344454600000000A4
:102060000D980D990078491C0D911A9A199990476D
:102070006D1C0199481E01900029F1DC4DE100F032
:1020800059F94519761C3078002800D0DFE528463C
:102090001BB0F0BD600700D406271898C01DC1080A
:1020A000C90048680A680831C30FDB071891190096
:1020B00001D09CA108E0210501D59BA104E0E10726
:1020C00001D09AA100E09AA14300109130785B08FA
:1020D00065280CD006DC452809D046281DD04728A5
:1020E00041D141E0662818D067283CD13CE000216E
:1020F000112F01DB112000E0781C0191009008A94C
:1021000011A8FFF7E5FC139905910021119A15928A
:102110007F1C12980197009150E00120C0070390A6
:102120000120019008A9009711A8FFF7D1FC139A8C
:10213000149905920022119B009212981593059A0A
:102140000192002901D0104602E0791C401801904C
:10215000381A01D5019804E04042401E0090781CD6
:102160000190C01B029043E0012F00DA01270021FB
:10217000112F01DD112000E038460191009008A9DF
:1021800011A8FFF7A5FC13990591119A0021129847
:1021900015920091019721070CD40599B94201DBF2
:1021A000019900E00191012904DD159A491E515C55
:1021B000302906D0B84201DA011D05DA0121029169
:1021C00015E00199491EEDE7002805DC009941184A
:1021D00000910199091A03E0019A411C914200DD26
:1021E00001910099401A401C02900120C007039001
:1021F000200706D402990198814202DB0020C043E7
:10220000029000206946C87707AF01210398033781
:10221000C907884224D0022011902B2012900398E5
:1022200000280CDA404203902D20129007E00A218A
:102230000398FEF71FF830317F1E03903970119913
:10224000481E11900029F2DC03980028EFD1791E76
:10225000129808703078202108404530BF1E387031
:1022600006A8C01BC01D039010980078002800D05D
:102270000120019941180298C017091803980918FC
:102280000498401A401E0490E00306D421461A9B8D
:10229000199A049800F05EF8451910980078002803
:1022A00003D01A9A199990476D1CE00324D5214652
:1022B0001A9B199A049800F04DF845191CE00098F3
:1022C000002807DB00990598884203DD1598405CDB
:1022D000199901E0199930201A9A904700986D1CBD
:1022E000401C00900298401E0290002804D11A9AC7
:1022F0002E20199990476D1C0199481E01900029C4
:10230000DDDC05E038781A9A7F1C199990476D1C1E
:102310000399481E03900029F4DC21461A9B199A60
:102320000498ACE62D0000002B0000002000000007
:1023300000000000F8B5044600251E461746880434
:1023400004D405E039462020B0476D1C641EF9D541
:102350002846F8BDFFB50446002581B01E46C803D7
:1023600001D5302700E02027880404D505E0384651
:102370000399B0476D1C641EF9D5284605B0F0BD21
:102380000A68531C0B6010707047000000000000CA
:1023900000000000000000000000000000F8000045
:1023A0000000000000333000000000100C06100C8C
:1023B0000600000000000000000040C07840C07827
:1023C0004000043F04043F040400007088FC08300F
:1023D0000000001820FF211E0000F008F000E018A7
:1023E000000000211C031E211E0000F00888700060
:1023F00000001E2123241927211010160E000000B2
:1024000000000000000000000000000000E01804D0
:102410000200000000071820400000020418E0003D
:1024200000000040201807000000404080F080407D
:1024300040000202010F01020200000000F0000053
:1024400000000101011F0101010000000000000067
:10245000000080B0700000000000000000000000DC
:102460000000000101010101010100000000000065
:10247000000000303000000000000000000080601C
:102480001804006018060100000000E010080810A1
:10249000E000000F102020100F00001010F80000C6
:1024A00000000020203F202000000070080808885D
:1024B000700000302824222130000030088888482D
:1024C00030000018202020110E000000C02010F85D
:1024D000000000070424243F240000F8088888082E
:1024E00008000019212020110E0000E01088881833
:1024F0000000000F112020110E0000380808C83815
:1025000008000000003F00000000007088080888F4
:102510007000001C222121221C0000E0100808107D
:10252000E0000000312222110F00000000C0C000B6
:1025300000000000003030000000000000800000BB
:1025400000000000806000000000000080402010BB
:1025500008000001020408102000404040404040B4
:102560004000040404040404040000081020408017
:10257000000000201008040201000070480808084C
:10258000F0000000003036010000C030C828E8101C
:10259000E0000718272423140B000000C038E000D7
:1025A0000000203C23020227382008F88888887021
:1025B0000000203F202020110E00C030080808082D
:1025C0003800071820202010080008F80808081014
:1025D000E000203F202020100F0008F88888E8083D
:1025E0001000203F20202320180008F88888E808E1
:1025F0001000203F200003000000C0300808083809
:10260000000007182020221E020008F80800000819
:10261000F808203F210101213F20000808F80808A0
:1026200000000020203F2020000000000808F808DB
:102630000800C08080807F00000008F888C028184B
:102640000800203F20012638200008F8080000007C
:102650000000203F20202020300008F8F800F8F883
:102660000800203F003F003F200008F830C000086D
:10267000F808203F200007183F00E0100808081065
:10268000E0000F10202020100F0008F808080808AC
:10269000F000203F210101010000E01008080810AF
:1026A000E0000F18242438504F0008F888888888E4
:1026B0007000203F2000030C3020007088080808BC
:1026C00038000038202121221C00180808F80808CA
:1026D00018000000203F2000000008F80800000853
:1026E000F808001F202020201F000878880000C85C
:1026F0003808000007380E010000F80800F800084C
:10270000F800033C0700073C030008186880806855
:10271000180820302C03032C30200838C800C83893
:1027200008000000203F2000000010080808C838FA
:1027300008002038262120201800000000FE020298
:1027400002000000007F40404000000C30C000004C
:102750000000000000010638C00000020202FE0076
:102760000000004040407F00000000000402020220
:102770000400000000000000000000000000000055
:102780000000808080808080808000020204000041
:102790000000000000000000000000008080808039
:1027A00000000019242222223F2008F80080800027
:1027B0000000003F112020110E00000000808080EA
:1027C0000000000E112020201100000000808088F1
:1027D000F800000E112020103F2000008080808033
:1027E0000000001F222222221300008080F088882F
:1027F00088180020203F202000000000808080807A
:102800008000006B94949493600008F800808080AE
:102810000000203F210000203F2000809898000009
:1028200000000020203F2020000000000080989839
:10283000000000C08080807F000008F800008080D9
:102840008000203F24022D302000000808F80000FE
:1028500000000020203F20200000808080808080B9
:102860008000203F20003F20003F8080008080804B
:102870000000203F210000203F2000008080808059
:102880000000001F202020201F008080008080008A
:10289000000080FFA12020110E0000000080808039
:1028A0008000000E112020A0FF80808080008080AA
:1028B000800020203F2120000100000080808080D7
:1028C00080000033242424241900008080E08080CC
:1028D00000000000001F2020000080800000008019
:1028E0008000001F202020103F208080800000807A
:1028F000808000010E30080601008080008000808A
:1029000080800F300C030C300F000080800080802E
:1029100080000020312E0E31200080808000008059
:10292000808080818E701806010000808080808009
:1029300080000021302C2221300000000000807C2B
:10294000020200000000003F404000000000FF00C5
:10295000000000000000FF0000000002027C800078
:1029600000000040403F000000000006010102029C
:102970000404000000000000000000009C2900008A
:102980000000001028000000B41A0000C429000054
:102990002800001038020000C21A0000006CDC029F
:1029A0000000000000000000501315050301250081
:1029B0000000000000000000000000000000000017
:0429C0000000000013
:04000005000000C136
:00000001FF
