:020000040000FA
:10000000E0120010590200005D0200005F020000D3
:1000100061020000630200006502000000000000B1
:100020000000000000000000000000006702000067
:1000300069020000000000006B0200006D02000079
:100040006F0200006F0200006F0200006F020000EC
:100050006F0200006F0200006F0200006F020000DC
:100060006F0200006F0200006F0200006F020000CC
:100070006F0200006F0200006F0200006F020000BC
:100080006F0200006F020000730500006F020000A5
:100090006F0200006F0200006F0200006F0200009C
:1000A0006F0200006F0200006F0200006F0200008C
:1000B0006F0200006F0200006F0200006F0200007C
:1000C0000448854601F07EFD00480047E505000034
:1000D000C046C046E012001070B54C4D0020696A61
:1000E000C905090F0B0001F01EFE1026090B0D0FAC
:1000F00011131517191B1D1F2123252644481AE02B
:10010000444818E0444816E0444814E0444812E0EB
:10011000444810E044480EE044480CE044480AE0FB
:10012000444808E0444806E0444804E0444802E00B
:10013000444800E04448696AC906890E891C01F0F8
:100140007DF9324A4032116B414C8E073F49B60F60
:100150001ED00023012E04D0022E0DD0032E21D15B
:100160000CE010688007800F12D0012810D0022800
:1001700017D0032816D114E0206013E01068800720
:10018000800F01D00128F2D1A868C005800F01D0EE
:10019000216007E0A8682D49C006C00E401C4843F6
:1001A000EAE72360916B206801F048F9206070BD98
:1001B00078B5284B986B202188439863134C002214
:1001C0002262009200BF0098401C0090C828F9D31A
:1001D0000E48012140300160416042604160456845
:1001E000ED07FCD02325A5609D6B8026B5439D635C
:1001F000E368DB07FCD0032303634163426341638D
:10020000426BD207FCD0816378BD000000800440BF
:1002100020A1070000350C00E0C81000C05C1500EC
:10022000006A180040771B0080841E00C0912100E6
:10023000009F240040AC2700E032290020402C0021
:10024000604D2F0000D4300040E13300001BB700A8
:10025000000000100082044005480047FEE7FEE76A
:10026000FEE7FEE7FEE7FEE7FEE7FEE7FEE7FEE766
:10027000C10000001948016880221143016018483C
:100280000121016004214161704770B50546144C9D
:100290000220606013487D21C900006801F0CEF89B
:1002A000401EE060A5610120606060606068C0077A
:1002B000FCD170BD70B50546094C0220606009484C
:1002C0000949006801F0BAF8401EE060A56101200C
:1002D00060606068C007FCD170BD00008080044091
:1002E00000C000400000001040420F0010B5002286
:1002F0009623114601F06EFA10BD7047FFFFFFFF15
:1003000010B5CDA20421012000F03FFBCEA20121B7
:10031000022000F03AFBCE4C07212278022000F0A8
:1003200009FB62780821022000F004FBA278092171
:10033000022000F0FFFAE2780A21022000F0FAFA27
:1003400022790B21022000F0F5FA62790C210220BB
:1003500000F0F0FAA2790D21022000F0EBFAE27928
:100360000E21022000F0E6FA227A0F21022000F08E
:10037000E1FA627A1021022000F0DCFAB5A2012134
:10038000032000F002FB0A3422780821032000F049
:10039000D1FA62780921032000F0CCFAA2780A2170
:1003A000032000F0C7FAE2780B21032000F0C2FA24
:1003B00022790C21032000F0BDFA62790D2103207F
:1003C00000F0B8FAA2790E21032000F0B3FAE27926
:1003D0000F21032000F0AEFAA0A20121042000F0BA
:1003E000D4FAA04C08212278042000F0A3FA627805
:1003F0000921042000F09EFAA2780A21042000F0CE
:1004000099FAE2780B21042000F094FA22790C2169
:10041000042000F08FFA62790D21042000F08AFA9E
:1004200091A20F21042000F0B0FA10BD70B5012593
:100430008E49AD028E4C6E10884210DD00F0C3F97B
:10044000E06BA843E063E06BB043E063E06BA910AE
:100450008843E0638748C16BA943C16370BDE06B0B
:100460002843E063E06B3043E06300F08FF900F075
:10047000C5FF70BD10B50446084601F039F90246C3
:100480000B467DA1204601F023FC10BDF0B589B0DC
:1004900000256C4600F09EFCA9006D1C6050072DE5
:1004A000F8D3002600250620871B11E0A8000119BB
:1004B000079108904968205801F04AF907D2079936
:1004C00008984A68089920586250079948606D1C3E
:1004D000AF42EBD8761C062EE4D300200125A900FC
:1004E000615800F0C1FF6D1C062DF8D3644901F07E
:1004F00014F809B0F0BD10B5062162A000F0E1FCCF
:100500000A21534800F0DDFC022160A000F0D9FC74
:1005100006215FA000F0D5FC4D4808210A3000F00C
:10052000D0FC022159A000F0CCFC06215AA000F01A
:10053000C8FC4C480121083800F0C3FC022153A03C
:1005400000F0BFFC10BD5648016842151143016020
:1005500054481F2101600021C160032141615249BB
:100560000968491E81610121416088044F49086082
:10057000704770B54B4C2068012528432060012846
:100580002FD10821374800F048FE49A001F090FB28
:100590004CA001F08DFB51A001F08AFB52A001F0AC
:1005A00087FB00F095FBFFF771FF2E4E0146083EDA
:1005B00070602C48FFF75EFFFFF79DFF29494EA0B2
:1005C00001F076FB31A001F073FBFFF799FE706834
:1005D000FFF72CFF00F0DEFD0821701800F0FAFD97
:1005E000256070BDFFF7E4FD012000F0CBFA00F0BC
:1005F00063FEE120400200F013FC00F087F8FFF7F3
:1006000039FEFFF7A0FF00F0CBFE00F061FB0821F0
:10061000144800F002FE00F05DFA00F078F900F0F6
:10062000CFFC00F093F8C820FFF72FFE00F0D2FBBC
:1006300000F0ACF8FEE700004C69754A69616A7524
:100640006E20212000000000444154453A20000063
:10065000A810001054494D453A20200054656D7093
:100660003A2020000C000010430000000000E04190
:10067000C03F0250C03F0150252E336600000000ED
:100680000000A040446174653A200000200A000088
:1006900054696D653A2000005765656B3A2000008B
:1006A00080800440004001400000001000E100E0B4
:1006B0004861696E616E20556E6976657273697402
:1006C000790A0000546561636865723A2057616E6B
:1006D000672051696E676A690A0000004C697520DD
:1006E0004A69616A756E0A00323032323330303412
:1006F0003432360A0000000054656D706572617412
:100700007572653A2025730A0000000010B5604834
:100710000168604A114301605F49CA6A02200243CE
:10072000CA625E4C60600021E1605C494031486310
:10073000400260615A487D21C900006800F07EFED9
:100740006062606AE0610120606010BD504801682D
:1007500040221143016053490A6803151A430A6095
:1007600001689A0191430160704770B50D460146DA
:100770004B48006800F062FE484C401E6062606AB0
:100780006421684300F05AFEE06170BD10B5404836
:100790000268012109040A4302603F4AD36A9B09A7
:1007A0009B01D3623F4A13680415A34313603B4B7C
:1007B0000022DA615A60026883159A430260026877
:1007C0008A43026010BD30B4314802680121090437
:1007D0000A430260304AD36A02242343D3622F4B78
:1007E00001225A60026883151A43026002688A4334
:1007F00002602D480622C18B008C51432B4A891878
:100800004000085A30BC3221AFE7F8B5264D292602
:100810003601A88801240090204606214843295A21
:10082000062251434719214A788889184000085AFE
:100830003221FFF79AFFB988009800F0FFFDFFF71B
:1008400024FD641CA4B2B442E6D9F8BDF8B5174D36
:1008500026263035A88801240090204606214843EA
:10086000295A062251434719104A788889184000AE
:10087000085A3221FFF779FFB988009800F0DEFDB1
:10088000FFF703FD641CA4B2B442E6D9F8BD000032
:10089000808004400001010040400440000001400D
:1008A00000000010008001503C01001022000010E8
:1008B00010B5044600F0A3F9782000F0B7F9002045
:1008C00000F0B4F9204600F0B1F900F0A4F910BD31
:1008D00010B5044600F093F9782000F0A7F9402005
:1008E00000F0A4F9204600F0A1F900F094F910BD41
:1008F00010B50C46B0210843FFF7DAFF200910308D
:10090000FFF7D6FF2007000FFFF7D2FF10BD70B52D
:10091000002400212046FFF7EBFF00250020FFF711
:10092000D7FF6D1CEDB2802DF8D3641CE4B2082C07
:10093000EFD370BDF8B5CF004500083FA81E16469E
:10094000F9B2C0B2FFF7D4FF8D4900243001461838
:100950003019FF38FF3802380078FFF7B9FF641C00
:10096000E4B2082CF4D36D1EF9B2E8B2FFF7C0FF71
:1009700000243019FF38FF380238007AFFF7A8FF4B
:10098000641CE4B2082CF4D3F8BDF8B515460E4645
:100990000746002406E03019C1B23846FFF7CAFF07
:1009A000641CE4B22A5D002AF5D1F8BD024601209C
:1009B00000E05043491EFCD27047FFB581B01D4690
:1009C00017460E46002414E0291B0A20491EFFF793
:1009D000EDFF0146384600F031FD0A2100F02EFD02
:1009E0000A463019C1B230320198FFF7A3FF641CE8
:1009F000E4B2AC42E8D305B0F0BDFFB581B01D460E
:100A000014000E4605D42B220198FFF793FF2746CA
:100A100004E02D220198FFF78DFF6742002415E0C6
:100A2000291B0A20491EFFF7C1FF0146384600F086
:100A300005FD0A2100F002FD0A463019401CC1B232
:100A400030320198FFF776FF641CE4B2AC42E7D382
:100A5000D1E7FFB581B01D4617460E46002419E0C8
:100A6000291B1020491EFFF7A1FF0146384600F060
:100A7000E5FC0207120F0A2A04D23019C1B2303243
:100A8000019803E03019C1B237320198FFF752FFE5
:100A9000641CE4B2AC42E3D3ADE7FFB581B01D46C0
:100AA00017460E46002412E0291B0220491EFFF7BC
:100AB0007DFF0146384600F0C1FCC2073019D20F55
:100AC000C1B230320198FFF735FF641CE4B2AC428A
:100AD000EAD390E710B500217D22D2000020401C0F
:100AE0009042FCD3491C9142F8D3012000F04AF80F
:100AF000AE20FFF7DDFED520FFF7DAFE8020FFF7FE
:100B0000D7FEA820FFF7D4FE3F20FFF7D1FED32069
:100B1000FFF7CEFE0020FFF7CBFE4020FFF7C8FE18
:100B2000A120FFF7C5FEC820FFF7C2FEDA20FFF7BD
:100B3000BFFE1220FFF7BCFE8120FFF7B9FECF20D9
:100B4000FFF7B6FED920FFF7B3FEF120FFF7B0FEA6
:100B5000DB20FFF7ADFE3020FFF7AAFEA420FFF751
:100B6000A7FEA620FFF7A4FE8D20FFF7A1FE14200C
:100B7000FFF79EFEAF20FFF79BFEFFF7C8FE10BDFC
:100B80001626000030B532494A6802231A434A60EB
:100B90002F4B803319682022114319601968D40241
:100BA000214319602B4A116B890989011163156B67
:100BB00001210D431563556BAD09AD015563556BAF
:100BC0000D435563890701280DD0FF20813008614E
:100BD00048616C2088611868A0431860086840224A
:100BE0001043086030BD156B0120400205431563BA
:100BF000556B05435563302048610861E9E70120E2
:100C00008007016820221143016001680907FCD5B3
:100C10002821816170470821C8068161016810227E
:100C2000114301600168C906FCD47047012189079E
:100C300088600820886108680007FCD57047082193
:100C4000C806816101680907FCD58068C0B2704799
:100C5000008004400040044070B50446FFF7CFFF19
:100C6000D020FFF7E3FF04252E0735600020FFF7B3
:100C7000DDFF2078FFF7DAFF6078FFF7D7FFA07875
:100C8000FFF7D4FFE078FFF7D1FF2079FFF7CEFF21
:100C90006079FFF7CBFFB561A079FFF7C7FFFFF7DA
:100CA000BAFF70BD4648D7E770B50D460446FFF75A
:100CB000A6FFD020FFF7BAFF2046FFF7B7FF0420BA
:100CC000020790612846FFF7B1FFFFF7A4FF70BD50
:100CD00070B501213F20FFF7E7FFFFF790FFD1201C
:100CE000FFF7A4FF04252E073560FFF7A8FF354C5A
:100CF0002070FFF7A4FF6070FFF7A1FFA070FFF75F
:100D00009EFFE070FFF79BFF2071FFF798FF607177
:100D1000B561FFF794FFA071A2782B491309120760
:100D20003033120F0B7030324A703A228A70637877
:100D30001D091B0730351B0FCD7030330B714A7105
:100D40002278130912073033120F8B713032CA71B7
:100D50001E4932220A7030224A70020900073032DE
:100D6000000F8A703030C8702D2008716279130925
:100D700012073033120F4B7130328A71C8712079EB
:100D8000020900073032000F0A7230304872E078F2
:100D90000F490007000F30300870FFF73CFF70BDAF
:100DA00010B5FFF72CFFD120FFF740FF042001070B
:100DB0008861FFF744FF0446FFF72DFF204610BD72
:100DC000140000101B000010B2100010A81000103A
:100DD0000400001010B5FFF712FF9120FFF726FF67
:100DE000FFF72DFF0446FFF72AFF2102401884B2C7
:100DF000FFF711FF6009094C410509D58005800DF9
:100E000000F054FC224600F03BFC00F085FC10BDD5
:100E1000FFF76CFA214600F0BEFB10BDFDFFFFFF9F
:100E200070B5314B196801242404214319602F4AFD
:100E3000516AC908C9005162516A012529435162AA
:100E4000916AC908C9009162916A2943916219683F
:100E5000A143196019682211114319609D61244C46
:100E60008321E160234909680A090146104600F020
:100E7000E5FA010A6160C0B220600320E06007204B
:100E8000A060606960694006800F0328FAD100E025
:100E900020686069C007FBD160682843606001205A
:100EA00015494005086070BD11484169C907FCD06B
:100EB0000068C0B270470E49086048698006FCD5DA
:100EC00070470B4A06E053699B06FCD50378136014
:100ED000401C491E0029F6D1704700B50246C0B239
:100EE000FFF7E9FF104600BD8080044080400440C9
:100EF000008000400000001000E100E07248C06B7C
:100F00004006C00F704771490A68402002430A60DA
:100F10006F490A6882430A6070476B49CA6B53067F
:100F20004022002B01DB012808D0CB6B5B0604D5E7
:100F3000002802D1C86B9043C8637047C86B104348
:100F4000FAE762490A68402002430A6060490A6879
:100F500002430A60704710B50024FFF7F2FF00203B
:100F6000FFF7DBFF5B48FFF7A5F90120FFF7D5FF8F
:100F70000F20FFF79FF9FFF7C6FF04E0641CE4B2FF
:100F80000120FFF797F9FFF7B9FF002802D0C82C1E
:100F9000F4D30EE0C82C0CD2002404E0641CE4B2AC
:100FA0000120FFF787F9FFF7A9FF002803D0F02CF5
:100FB00004D3012010BDF02CF0D3FAE7002010BDBF
:100FC00042490A68402002430A6041490A680243D4
:100FD0000A60C0E770B500252C468026FFF7B1FFF8
:100FE0000020FFF79AFF0220FFF764F90120FFF7C6
:100FF00094FFFFF788FF0C20FFF75CF96408FFF708
:101000007DFF002800D034433220FFF753F96D1CD8
:10101000EDB2082DE2D3204670BD70B50446FFF74F
:1010200090FF0025E0070AD00020FFF776FF02209E
:10103000FFF740F90120FFF770FF3C2009E0002096
:10104000FFF76BFF3C20FFF735F90120FFF765FF45
:101050000220FFF72FF96D1C6408EDB2082DE1D3D3
:1010600070BD10B5FFF777FFCC20FFF7D6FF442007
:10107000FFF7D3FF10BD10B5FFF7F3FFFFF76BFFCE
:10108000CC20FFF7CAFFBE20FFF7C7FFFFF7A2FF84
:101090000446FFF79FFF0102091989B2000609D52E
:1010A000C843401C80B200F015FB00220A4B00F040
:1010B0007FFA06E0084600F00DFB0322D24300F061
:1010C000DFFA00F029FB10BDC03F005080800440D3
:1010D00000800050EE0200000000B0BF10B500F02C
:1010E0001AF9062000F023F900F01BF910BD10B525
:1010F00000F011F9052000F01AF9FF2000F017F9AF
:10110000044600F00EF9204610BD10B5FFF7EFFFC2
:101110008007800F0228F9D110BD10B5FFF7E7FF57
:10112000C007FBD110BD10B50446FFF7D7FF322032
:10113000FFF7ABF800F0EFF8012000F0F8F82046D8
:1011400000F0F5F800F0EDF810BD10B543484B2164
:101150000170002141708170C17000F0DCF8102135
:101160003F4800F0FCF800F0DCF810BD10B500209E
:10117000FFF7D9FF3220FFF788F8FFF7AFFF3220E3
:10118000FFF783F800F0C7F8602000F0D0F800F017
:10119000C8F810BD10B50020FFF7C5FF3220FFF7DB
:1011A00074F8FFF79BFF3220FFF76FF800F0B3F8F9
:1011B000202000F0BCF8222000F0B9F8222000F036
:1011C000B6F8222000F0B3F800F0ABF86420FFF787
:1011D0005CF810BD70B50C460546FFF77FFF322066
:1011E000FFF753F81D4A02201070222050709070B3
:1011F000D070002303E0E85CD11808715B1CA342A7
:10120000F9DBFFF782FF00F086F8241DE1B21348F6
:1012100000F098F800F085F870BD70B505460F4AEB
:10122000032010702220507090700C46D070FFF791
:1012300074FF00F070F80421084800F083F821469C
:10124000074800F08CF800F06CF80022044802E037
:10125000815CA954521CA242FADB70BDBC10001084
:10126000CC10001045480168454A114301604548CB
:10127000C169C908C900C161C26902210A43C261CA
:1012800040484030C268D208D200C260C2680A43F7
:10129000C2603C484038826AD208D2008262826AC8
:1012A0000A43826238490A68012002430A603749CA
:1012B000CA6B0243CA637047304810B58038416832
:1012C0000424214341602D48016822041143016038
:1012D0000223C361FFF7C6FF2E482D490160036159
:1012E00041684908490041604168A1434160416843
:1012F0001943416000218268491CC9B20829FAD308
:101300000020254B254A014619541154401CC0B2F7
:101310001028F9D310BD1D48C16B49084900C163AD
:1013200070471A48C16B01221143C16370471949C4
:10133000CA68D206FCD48860C8684007FCD58868B3
:10134000C0B2704730B50C460546002304E0E85CA7
:10135000FFF7EDFF5B1CDBB2A342F8D330BD30B525
:101360000C460546002305E0FF20FFF7E0FFE854A8
:101370005B1CDBB2A342F7DB30BD00008080044081
:10138000400001004040044000800250C03F025035
:101390000707000000800540CC100010BC100010B2
:1013A0002148016840221143016020480268012160
:1013B00049020A4302601E4802684B101A43026049
:1013C00002680A43026001689A0011430160704795
:1013D00010B51848C16B012252025140C16332203E
:1013E000FEF753FF10BD10B51348C16B01229202E6
:1013F0005140C1633220FEF748FF10BD10B50E48C2
:10140000C16BFF2201325140C1633220FEF73DFF24
:1014100010BD10B50848C16B012252025140C16392
:101420003220FEF732FF10BD808004400080015062
:1014300000800250C03F0150C03F025030B50B4603
:10144000014600202022012409E00D46D5409D429E
:1014500005D31D469540491B254695404019154624
:10146000521E002DF1DC30BDF8B502464A40D40FC3
:1014700042004B0052085B089A4202D202460846DC
:1014800011464A0023D0C30D4A00DDB2120EAD1A38
:10149000202D35DA49020126490AF6058A19002C61
:1014A00000D0524220214F1B1146B9402A4110184A
:1014B000C20D9A4221D0002C17D0012D08DCDA058C
:1014C000801AD20F8019D207DBB200F083F9F8BD81
:1014D000DA05801A012340001B06C01880185A4202
:1014E0008018CA0F1043490007E04908C20711439A
:1014F000DA05801A80194008801800F063F9F8BDF9
:1015000061000122511A001BF7E70122D207514066
:10151000AAE70122D2075040A6E770B502464A402A
:10152000D50F40004A00ED0740085208002814D0AB
:10153000002A12D0C40DD30D41020120C005520271
:10154000490A520AE41A091812187D34914201D34B
:10155000641C00E04900002C01DA002070BD00236B
:10156000914201D3891A0343400849000028F7D16A
:1015700000290AD0914202D10121C90705E0914218
:1015800001D2012101E00121C943E005C018401941
:1015900000F018F970BD420005D04200120E524210
:1015A0008A4201DB00207047C90508187047000017
:1015B000F0B51FB488B00B990998002448400999E8
:1015C000C00F490049080991C0070B9900904900D4
:1015D00049080B9109990898A64608431CD00B9915
:1015E0000A98084318D0099801244000420D480089
:1015F000410D099824050003000B204309900B9826
:101600000003000B20430B9050181C494018002287
:1016100001901446104605E0002001460DB0F0BDD3
:10162000032801DA034600E003239C46C11A0AAEF0
:101630000AE05F0008ADED5B4F00F75B7D430027DC
:10164000AA187C41491C5B1E6145F2DD410004ABD8
:101650005A522104120C0A43240C401C0828DFDBD8
:10166000019802900099704601910090059B049AA0
:101670000799069800F0F4F8D0E700000DFCFFFF92
:1016800070B54B005B0803430BD04B005C0D00268C
:1016900033466542B341D417AD1AA34102DB0020A3
:1016A000014670BD12053018514170BD0EB5C2170C
:1016B000C10F5040CA0740180021054B0293019208
:1016C00000910A460B4600F0CBF803B000BD0000C5
:1016D000330400000EB505490291002100910A462D
:1016E0000B46019100F0BCF803B000BD33040000CC
:1016F000C20FD207400040080BD0C10D0723DB0109
:10170000C91840020905400A1143C20840071143A5
:101710007047002001467047CB0FDB07490010B52A
:10172000490802460A4307D00A0D07240903E401C9
:10173000090B121B002A01DC002010BDC900440F58
:101740000C43C100E018D205801800F03BF810BD32
:101750000122D207002800DB101A002900DB511AF1
:1017600088427047F0B51FB40646002082B0054697
:101770004024019100901BE0019922460F4630461B
:1017800000F042FA049A059B801A994110D3104642
:101790001946224600F028FA361A8F410197224650
:1017A00001200021009F00F01FFA38184D410090E1
:1017B0002046641E0028DFDC019B00982946324643
:1017C00007B0F0BD002904DA401C490001D14008EF
:1017D0004000704770B40024050C05D110240004AB
:1017E00002D1002921D01124050E01D100020834B4
:1017F000050F01D10001241D850F01D18000A41C1B
:10180000002801DB4000641C002908D020252E1B85
:101810000D46F540A14000D00121294308430106AF
:101820001B1B000ADB1D02D5002070BC7047DB05C6
:10183000181880180029F8DA401C4900F5D170BC4E
:1018400040084000704710B5002B08DA0024401C07
:10185000614192185B411A4301D14008400010BD1C
:10186000F0B51FB482B005460C0003D0084600F066
:1018700043FA02E000F040FA203002460090214690
:10188000284600F0B1F9049B059A04460F46184318
:101890001143084314D0184610431BD00098402130
:1018A0000A1A1846059900F0AFF905460E46009A47
:1018B0000599049800F098F9084305D0012004E048
:1018C0002046394607B0F0BD0020C11705430E433E
:1018D0002C43374300990E986305401A7905E40AB2
:1018E00000220C43FD0A0A3002D500200146E9E738
:1018F0000105101969410C9C0D9D00196941FFF704
:10190000A2FFDFE7F0B507460846584087B0C00F92
:10191000049048000E46590040084908BC1A884106
:1019200005D2384631461E4617460B460246580039
:10193000400810434DD0300D039040055900400D34
:10194000490D0590401A0290402873DA18030121CE
:10195000000B09050843019004980092002806D066
:101960001146019A4942002090410091019002984D
:1019700040210A1A0199009800F036F905460C46F4
:101980006B4607CB00F051F9C0197141039A0E0D57
:101990000023D71756401A467A40164344D0049A7B
:1019A000002A2DD0029A012A039A15DC1205C01ACA
:1019B000914101263605001C7141D20F059ED207C8
:1019C0000093019202962A462346FFF749FF07B08B
:1019D000F0BD38463146FAE71605234A0F46B218DD
:1019E000C01AB74101210905001C4F4100187F4171
:1019F000114618187941E20F10436D19644113E044
:101A0000E2076D0815436408C2071443039A0126D0
:101A10001205C01A91413605001C7141CE074008DD
:101A200030434908C01851412A462346FFF70BFFAF
:101A3000CDE7FFE7049801224000C117121A0023E6
:101A40008B4104983146C417381AA141EEE730B4EF
:101A50000124E407634030BC54E730B40124E407B8
:101A6000614030BC4EE700000000E0FFF0B50C46DE
:101A70005C4085B0E40FE40703944C000026640842
:101A800059009446490802460296224321D06246F4
:101A90000A431ED06200570D4A000E032303550D62
:101AA000012402462C492405781B1B0B360B4018D9
:101AB00023432643614600901C46501AB44103D389
:101AC0000098401C009002E0921800985B410028AA
:101AD00003DA0020014605B0F0BD00200121090510
:101AE0000746864611E064461D46141BB54106D3E1
:101AF0006546521BB341744607430C43A646CD07C7
:101B000040084908284392185B4105460D43EAD135
:101B10001046184313D060461946504071400843A0
:101B200006D06046101AB34106D20122002306E017
:101B300000220123DB0702E00122D2435310009868
:101B400074460105381C6141029C039D00196941DE
:101B5000FFF779FEBFE70000FD0300004A0009031C
:101B60000123090B1B0519430A4B10B5520D9A426C
:101B700002DA0020014610BD064B34339A4203DCE2
:101B80009A1A00F041F810BD034BD21800F02CF85F
:101B900010BD0000FF030000CDFBFFFF10B50029C2
:101BA00004DB0124E40740428C412146002B04DB86
:101BB0001C460123DB075242A341994200D19042C7
:101BC00010BD0000064C0125064E05E0E36807CC79
:101BD0002B430C3C98471034B442F7D3FEF774FA09
:101BE000082C0000282C000010B5202A04DB014638
:101BF000203A9140002010BD914020239C1A0346BA
:101C0000E3401943904010BD10B5202A04DB08467C
:101C1000203AD040002110BD0B46D340D0402024B4
:101C2000A21A91400843194610BD10B5202A06DBC0
:101C3000CB170846203A1041C1170B4306E00B466C
:101C40001341D0402024A21A91400843194610BDE8
:101C500070B58D180478401CA207920F01D102784C
:101C6000401C231106D10378401C03E006780E7057
:101C7000401C491C521EF9D1002B15D002780C26AD
:101C80008A1A3440401C0C2C03D0A401121B9B1C4C
:101C900008E004782402121B401CF8E714780C704A
:101CA000491C521C5B1EF9D5A942D3D3002070BD3C
:101CB0000FB410B503A9044B044A029800F008F9C8
:101CC00010BC08BC04B01847DB0E0000A4100010C4
:101CD0000FB410B504A9074B02AA039800F0F8F856
:101CE000044602A9002000F091FC204610BC08BC6C
:101CF00004B018470D2600002021020C01D010214D
:101D00001046020A01D010460839020901D01046D7
:101D1000091F820801D01046891E420801D0881E82
:101D20007047081A704730B47446641E2578641CE6
:101D3000AB4200D21D46635D5B00E31830BC184720
:101D400002E008C8121F08C1002AFAD1704700201B
:101D500001E001C1121F002AFBD17047F0B51FB48A
:101D600086B00998089A030D0021024314D0514807
:101D7000514A1818504305141198012810981AD088
:101D8000281A401C00264D4F4D49009601910490A1
:101D9000002812DA444211E01198012449A30128D5
:101DA00001D11098C1430698119A84600360C26003
:101DB00041600BB0F0BD4042E4E70446210500203D
:101DC0003F4A001C51410391029012E0E00707D006
:101DD00032463B4601990098FFF7EAFB01910090DB
:101DE00032463B4610461946FFF7E2FB06460F46D1
:101DF0006410002CEAD10498039B0028029A0999E8
:101E0000089806DAFFF7D4FB019B009AFFF7D0FB96
:101E100005E0FFF72BFE019B009AFFF727FE044623
:101E20000E460022284BFFF7B9FE03D80020C0431E
:101E3000014607E00022254B20463146FFF762FDB0
:101E4000FFF78CFE102409E0002C0ADB0A22002395
:101E5000FFF788FC079B30321A55641E02460A437E
:101E6000F2D11122641C079B121B1C19119B012B20
:101E700003D0012308430ED10AE0084304D0112007
:101E800010900020119077E71098151A6D1E0BE046
:101E90001098824202DD00236D1C03E0824201DAC9
:101EA00000236D1E002BEED0069811998260C16050
:101EB00030C07EE701FCFFFF104D00000000144021
:101EC0000000F03F300000000000F0430000E03F61
:101ED000FFB597B0064600251BE2252876D10024E1
:101EE0002746F749049400E00443761C3278012029
:101EF000203A90400842F7D130782A280ED00222AA
:101F0000307801463039092916D804990A235943F3
:101F1000303940181443761C0490F1E7189802C831
:101F200004911890002904DA012040030443484238
:101F3000049002200443761C30782E2814D104200B
:101F400004437078761C2A2809D11898761C80C81A
:101F5000189009E00A214F43303FC719761C3078AA
:101F6000014630390929F5D930786C2810D006DCC3
:101F70004C281AD068280ED06A2817D104E074289B
:101F800013D07A2812D110E00120400504430CE060
:101F90000121090501E0032109050C437178814203
:101FA00003D1012000052418761C761C30786628A1
:101FB0000BD013DC58287DD009DC00287BD04528C5
:101FC000F6D04628F4D047281AD1A9E118E06328B2
:101FD00035D0642870D0652812D1A1E170286CD06A
:101FE00008DC6728F1D069287DD06E280DD06F28D5
:101FF00006D1BCE073282ED0752873D0782859D02C
:102000001A9A199990476D1C82E16002400F0228CC
:1020100009D003280DD00428189801680DD00D6050
:10202000001D189074E11898EA1701680D604A6065
:10203000F6E7189801680D80F2E70D70F0E7189840
:102040006A4601781172001D18900020507202A893
:102050000090012005E0189802C818900020009117
:10206000C04361070ED5002101E00199491C01918F
:10207000B94213DA8142F8DB019A0099895C0029A0
:10208000F3D10BE0002101E00199491C019181424B
:10209000FADB019A0099895C0029F5D1019904982D
:1020A0001A9B471A21463846199A00F099FA4019A6
:1020B000019903E051E030E115E050E0451807E0F8
:1020C000009800990078491C00911A9A1999904734
:1020D0000198401E0190401CF2D1214638461A9BBF
:1020E000199A12E137E00A20002100900191600264
:1020F000410F022907D0189A01CA1892C2179446B4
:10210000032908D00AE01898C01DC108C90005C9F4
:102110001891944607E000B2C2179446042902D1F0
:1021200040B2C1178C4600226146944506DA0A4641
:102130000021404291418C462D2102E0210504D529
:102140002B216A461173012103E0E10701D0202110
:10215000F7E7029156E00A200AE0102008E010207C
:1021600000900021042004430191082703E0082087
:102170000021019100906002410F022907D0189AB6
:1021800001CA189200229446032908D008E0189842
:10219000C01DC108C90005C91891944603E080B26A
:1021A000042900D1C0B20021029121072AD531783B
:1021B0000D91702906D0009A1021019B4A401A43C4
:1021C00005D00EE040216A461173012108E0614606
:1021D000014306D030216A4611730D9951730221D3
:1021E0000291009A0821019B4A401A430AD1614694
:1021F000014301D1610705D530216A4611730121E0
:102200007F1E02913178582904D02EA10E910DA97C
:102210000D910DE030A1F9E76146019B009AFFF7AF
:10222000A1FA0E9B8C469B5C0D9A521E0D92137068
:1022300061460143F0D10D9805A9081A203001909C
:10224000600703D501200004844300E001270198C2
:10225000874201DD381A00E0002001990090411802
:10226000029809180498401A0490E00306D4214605
:102270001A9B199A049800F0B3F94519002706E053
:1022800003A81A9AC05D199990476D1C7F1C02988B
:102290008742F5DBE0030CD521461A9B199A049876
:1022A00000F09EF9451904E01A9A302019999047D8
:1022B0006D1C0099481E00900029F5DC1FE000000D
:1022C000092801003031323334353637383961620C
:1022D00063646566000000003031323334353637D0
:1022E0003839414243444546000000000D980D999D
:1022F0000078491C0D911A9A199990476D1C019903
:10230000481E01900029F1DC4DE100F059F9451912
:10231000761C3078002800D0DFE528461BB0F0BDE1
:10232000600700D406271898C01DC108C900486876
:102330000A680831C30FDB071891190001D09CA16E
:1023400008E0210501D59BA104E0E10701D09AA195
:1023500000E09AA14300109130785B0865280CD00A
:1023600006DC452809D046281DD0472841D141E048
:10237000662818D067283CD13CE00021112F01DBF2
:10238000112000E0781C0191009008A911A8FFF726
:10239000E5FC139905910021119A15927F1C129862
:1023A0000197009150E00120C007039001200190A7
:1023B00008A9009711A8FFF7D1FC139A1499059268
:1023C0000022119B009212981593059A0192002900
:1023D00001D0104602E0791C40180190381A01D54E
:1023E000019804E04042401E0090781C0190C01B00
:1023F000029043E0012F00DA01270021112F01DDB7
:10240000112000E038460191009008A911A8FFF7BB
:10241000A5FC13990591119A00211298159200912B
:10242000019721070CD40599B94201DB019900E01D
:102430000191012904DD159A491E515C302906D00D
:10244000B84201DA011D05DA0121029115E0019976
:10245000491EEDE7002805DC00994118009101991B
:10246000091A03E0019A411C914200DD0191009993
:10247000401A401C02900120C0070390200706D498
:1024800002990198814202DB0020C04302900020A3
:102490006946C87707AF012103980337C907884207
:1024A00024D0022011902B201290039800280CDADF
:1024B000404203902D20129007E00A210398FEF776
:1024C000BDFF30317F1E039039701199481E119065
:1024D0000029F2DC03980028EFD1791E12980870C9
:1024E0003078202108404530BF1E387006A8C01B38
:1024F000C01D039010980078002800D00120019999
:1025000041180298C0170918039809180498401A2E
:10251000401E0490E00306D421461A9B199A0498A1
:1025200000F05EF8451910980078002803D01A9A38
:10253000199990476D1CE00324D521461A9B199ADE
:10254000049800F04DF845191CE00098002807DBBE
:1025500000990598884203DD1598405C199901E0BF
:10256000199930201A9A904700986D1C401C0090D1
:102570000298401E0290002804D11A9A2E20199920
:1025800090476D1C0199481E01900029DDDC05E093
:1025900038781A9A7F1C199990476D1C0399481E28
:1025A00003900029F4DC21461A9B199A0498ACE6A2
:1025B0002D0000002B0000002000000000000000A3
:1025C000F8B5044600251E461746880404D405E0E5
:1025D00039462020B0476D1C641EF9D52846F8BD49
:1025E000FFB50446002581B01E46C80301D530273B
:1025F00000E02027880404D505E038460399B04759
:102600006D1C641EF9D5284605B0F0BD0A68531C40
:102610000B60107070470000000000000000000018
:10262000000000000000000000F8000000000000B2
:1026300000333000000000100C06100C06000000F3
:1026400000000000000040C07840C0784000043F17
:1026500004043F040400007088FC083000000018E7
:1026600020FF211E0000F008F000E018000000210B
:102670001C031E211E0000F00888700000001E21AF
:1026800023241927211010160E000000000000005E
:10269000000000000000000000E01804020000003C
:1026A00000071820400000020418E000000000406D
:1026B000201807000000404080F0804040000202E7
:1026C000010F01020200000000F000000000010103
:1026D000011F01010100000000000000000080B0A7
:1026E0007000000000000000000000000000000179
:1026F00001010101010100000000000000000030A4
:10270000300000000000000000008060180400603D
:1027100018060100000000E010080810E000000F9B
:10272000102020100F00001010F800000000002002
:10273000203F20200000007008080888700000304A
:1027400028242221300000300888884830000018F2
:10275000202020110E000000C02010F8000000070B
:102760000424243F240000F8088888080800001981
:10277000212020110E0000E0108888180000000FB2
:10278000112020110E0000380808C8380800000089
:10279000003F000000000070880808887000001CDE
:1027A000222121221C0000E010080810E000000097
:1027B000312222110F00000000C0C0000000000004
:1027C0000030300000000000008000000000000029
:1027D0008060000000000000804020100800000120
:1027E00002040810200040404040404040000404E3
:1027F00004040404040000081020408000000020AD
:10280000100804020100007048080808F0000000E9
:10281000003036010000C030C828E810E00007187A
:10282000272423140B000000C038E0000000203CE7
:1028300023020227382008F8888888700000203F8B
:10284000202020110E00C0300808080838000718A2
:1028500020202010080008F808080810E000203F99
:10286000202020100F0008F88888E8081000203F7A
:1028700020202320180008F88888E8081000203F4E
:10288000200003000000C0300808083800000718C6
:102890002020221E020008F808000008F808203F47
:1028A000210101213F20000808F80808000000204D
:1028B000203F2020000000000808F8080800C08021
:1028C00080807F00000008F888C028180800203F9A
:1028D00020012638200008F8080000000000203FF2
:1028E00020202020300008F8F800F8F80800203FE9
:1028F000003F003F200008F830C00008F808203FE3
:10290000200007183F00E01008080810E0000F1032
:10291000202020100F0008F808080808F000203FC9
:10292000210101010000E01008080810E0000F1864
:10293000242438504F0008F8888888887000203F89
:102940002000030C30200070880808083800003888
:10295000202121221C00180808F80808180000008F
:10296000203F2000000008F808000008F808001FB9
:10297000202020201F000878880000C838080000A8
:1029800007380E010000F80800F80008F800033CC2
:102990000700073C0300081868808068180820308A
:1029A0002C03032C30200838C800C8380800000069
:1029B000203F2000000010080808C8380800203810
:1029C000262120201800000000FE02020200000064
:1029D000007F40404000000C30C0000000000000BC
:1029E00000010638C00000020202FE0000000040A4
:1029F00040407F00000000000402020204000000CA
:102A000000000000000000000000000000008080C6
:102A100080808080808000020204000000000000AE
:102A2000000000000000000080808080000000198D
:102A3000242222223F2008F8008080000000003F6E
:102A4000112020110E000000008080800000000E88
:102A5000112020201100000000808088F800000E66
:102A6000112020103F200000808080800000001F87
:102A7000222222221300008080F0888888180020FB
:102A8000203F202000000000808080808000006BBC
:102A900094949493600008F8008080800000203FA8
:102AA000210000203F2000809898000000000020B6
:102AB000203F20200000000000809898000000C007
:102AC0008080807F000008F8000080808000203F28
:102AD00024022D302000000808F80000000000202B
:102AE000203F202000008080808080808000203F68
:102AF00020003F20003F8080008080800000203F39
:102B0000210000203F200000808080800000001F06
:102B1000202020201F00808000808000000080FF97
:102B2000A12020110E000000008080808000000E97
:102B3000112020A0FF8080808000808080002020E5
:102B40003F21200001000000808080808000003351
:102B5000242424241900008080E0808000000000EC
:102B6000001F202000008080000000808000001FE7
:102B7000202020103F208080800000808080000185
:102B80000E300806010080800080008080800F30B9
:102B90000C030C300F00008080008080800000203B
:102BA000312E0E3120008080800000808080808166
:102BB0008E701806010000808080808080000021D7
:102BC000302C2221300000000000807C0202000036
:102BD0000000003F404000000000FF000000000037
:102BE0000000FF0000000002027C800000000040A6
:102BF000403F000000000006010102020404000042
:102C00000000000000000000282C00000000001060
:102C1000A8100000501C0000282E0000A810001072
:102C2000380200004E1D0000D006006CDC020001DE
:102C3000B0085013150527122414202B06010B028F
:102C4000160426014B0297044A01930226055D01F2
:102C5000BA027505880110032006B8017003E0066A
:102C6000EE01DC03B8074220053A020100023202FD
:102C70000632030C4102120010031618001E410C0C
:102C8000320406720530011818210C3004020006C7
:102C900006410C2124B20254012224A1965205744B
:102CA000817E011618252C239803C6230200F741C4
:102CB000EE216C210C01D6189603D4650865B43258
:102CC0000436610CE12A0211022472022A5204F035
:102CD000021B010C7A0256619C2106520460021309
:102CE0000078016CA221CCC53E0110A2254A618466
:102CF0007A06C4412452140C4106F205240213053D
:102D00001E612A92038481D89614AA0223027E01AE
:102D100010665207D281A8920724A11E7E06840362
:102D2000A18AA59EC1AE92023001160C0231053C6B
:102D30000512D49E03420392019CE1789E048A040A
:102D40004130520106C54A61FC4D7804292ED20259
:102D5000122D5C0443320164810C013636412A0293
:102D600019030C6166011018320526410C01B8BA2E
:102D7000E10CF2040C52040CD20612451A0247B8B8
:102D800042E14EA1D2612A7E02C2050223042441FF
:102D9000128DA6066DD4048DE00461B4817E025DBF
:102DA000047E0221010656026EADB0040D1CAA0479
:102DB0007E0610050E27B8DA04FE0278060D1016FE
:102DC00005011E789207788DCE04FEB8CE04617E90
:102DD0000114780D86C80441188D1E039A028E7E58
:102DE000021009694C061706BC0DFFC8040DFFC888
:102DF000040DD6C804BE062A038DF2077E07FA0B1F
:102E00000E21B81404B202480D100405014066E119
:102E10006C0DFFA2030DFFA2030DFF6A087D660F74
:082E20000300000000000000A7
:04000005000000C136
:00000001FF
